{
  "contractName": "Consumer",
  "abi": [
    {
      "inputs": [],
      "stateMutability": "nonpayable",
      "type": "constructor"
    },
    {
      "anonymous": false,
      "inputs": [
        {
          "indexed": true,
          "internalType": "address",
          "name": "account",
          "type": "address"
        }
      ],
      "name": "ConsumerAdded",
      "type": "event"
    },
    {
      "anonymous": false,
      "inputs": [
        {
          "indexed": true,
          "internalType": "address",
          "name": "account",
          "type": "address"
        }
      ],
      "name": "ConsumerRemoved",
      "type": "event"
    },
    {
      "inputs": [
        {
          "internalType": "address",
          "name": "account",
          "type": "address"
        }
      ],
      "name": "isConsumer",
      "outputs": [
        {
          "internalType": "bool",
          "name": "",
          "type": "bool"
        }
      ],
      "stateMutability": "view",
      "type": "function",
      "constant": true
    },
    {
      "inputs": [
        {
          "internalType": "address",
          "name": "account",
          "type": "address"
        }
      ],
      "name": "addConsumer",
      "outputs": [],
      "stateMutability": "nonpayable",
      "type": "function"
    },
    {
      "inputs": [
        {
          "internalType": "address",
          "name": "account",
          "type": "address"
        }
      ],
      "name": "renounceConsumer",
      "outputs": [],
      "stateMutability": "nonpayable",
      "type": "function"
    }
  ],
  "bytecode": "0x608060405234801561001057600080fd5b506100203361002560201b60201c565b610376565b61003d81600061008360201b61017f1790919060201c565b8073ffffffffffffffffffffffffffffffffffffffff167f28b26e7a3d20aedbc5f8f2ebf7da671c0491723a2b78f47a097b0e46dee0714260405160405180910390a250565b600073ffffffffffffffffffffffffffffffffffffffff168173ffffffffffffffffffffffffffffffffffffffff16036100f2576040517f08c379a00000000000000000000000000000000000000000000000000000000081526004016100e9906102c4565b60405180910390fd5b61010282826101a060201b60201c565b15610142576040517f08c379a000000000000000000000000000000000000000000000000000000000815260040161013990610356565b60405180910390fd5b60018260000160008373ffffffffffffffffffffffffffffffffffffffff1673ffffffffffffffffffffffffffffffffffffffff16815260200190815260200160002060006101000a81548160ff0219169083151502179055505050565b60008073ffffffffffffffffffffffffffffffffffffffff168273ffffffffffffffffffffffffffffffffffffffff1603610210576040517f08c379a0000000000000000000000000000000000000000000000000000000008152600401610207906102c4565b60405180910390fd5b8260000160008373ffffffffffffffffffffffffffffffffffffffff1673ffffffffffffffffffffffffffffffffffffffff16815260200190815260200160002060009054906101000a900460ff16905092915050565b600082825260208201905092915050565b7f416464726573732063616e6e6f74206265207a65726f20616464726573730000600082015250565b60006102ae601e83610267565b91506102b982610278565b602082019050919050565b600060208201905081810360008301526102dd816102a1565b9050919050565b7f54686973206164647265737320616c726561647920686173207468697320726f60008201527f6c65000000000000000000000000000000000000000000000000000000000000602082015250565b6000610340602283610267565b915061034b826102e4565b604082019050919050565b6000602082019050818103600083015261036f81610333565b9050919050565b610710806103856000396000f3fe608060405234801561001057600080fd5b50600436106100415760003560e01c8063112940f914610046578063834ff73914610062578063f487d48d14610092575b600080fd5b610060600480360381019061005b91906104d6565b6100ae565b005b61007c600480360381019061007791906104d6565b610108565b604051610089919061051e565b60405180910390f35b6100ac60048036038101906100a791906104d6565b610125565b005b6100c281600061017f90919063ffffffff16565b8073ffffffffffffffffffffffffffffffffffffffff167f28b26e7a3d20aedbc5f8f2ebf7da671c0491723a2b78f47a097b0e46dee0714260405160405180910390a250565b600061011e82600061029690919063ffffffff16565b9050919050565b61013981600061035d90919063ffffffff16565b8073ffffffffffffffffffffffffffffffffffffffff167fe3f5ed5f263f1f01764a96edfc7d025f511ec5f7d180e8816908b78bcf74f09860405160405180910390a250565b600073ffffffffffffffffffffffffffffffffffffffff168173ffffffffffffffffffffffffffffffffffffffff16036101ee576040517f08c379a00000000000000000000000000000000000000000000000000000000081526004016101e590610596565b60405180910390fd5b6101f88282610296565b15610238576040517f08c379a000000000000000000000000000000000000000000000000000000000815260040161022f90610628565b60405180910390fd5b60018260000160008373ffffffffffffffffffffffffffffffffffffffff1673ffffffffffffffffffffffffffffffffffffffff16815260200190815260200160002060006101000a81548160ff0219169083151502179055505050565b60008073ffffffffffffffffffffffffffffffffffffffff168273ffffffffffffffffffffffffffffffffffffffff1603610306576040517f08c379a00000000000000000000000000000000000000000000000000000000081526004016102fd90610596565b60405180910390fd5b8260000160008373ffffffffffffffffffffffffffffffffffffffff1673ffffffffffffffffffffffffffffffffffffffff16815260200190815260200160002060009054906101000a900460ff16905092915050565b600073ffffffffffffffffffffffffffffffffffffffff168173ffffffffffffffffffffffffffffffffffffffff16036103cc576040517f08c379a00000000000000000000000000000000000000000000000000000000081526004016103c390610596565b60405180910390fd5b6103d68282610296565b610415576040517f08c379a000000000000000000000000000000000000000000000000000000000815260040161040c906106ba565b60405180910390fd5b60008260000160008373ffffffffffffffffffffffffffffffffffffffff1673ffffffffffffffffffffffffffffffffffffffff16815260200190815260200160002060006101000a81548160ff0219169083151502179055505050565b600080fd5b600073ffffffffffffffffffffffffffffffffffffffff82169050919050565b60006104a382610478565b9050919050565b6104b381610498565b81146104be57600080fd5b50565b6000813590506104d0816104aa565b92915050565b6000602082840312156104ec576104eb610473565b5b60006104fa848285016104c1565b91505092915050565b60008115159050919050565b61051881610503565b82525050565b6000602082019050610533600083018461050f565b92915050565b600082825260208201905092915050565b7f416464726573732063616e6e6f74206265207a65726f20616464726573730000600082015250565b6000610580601e83610539565b915061058b8261054a565b602082019050919050565b600060208201905081810360008301526105af81610573565b9050919050565b7f54686973206164647265737320616c726561647920686173207468697320726f60008201527f6c65000000000000000000000000000000000000000000000000000000000000602082015250565b6000610612602283610539565b915061061d826105b6565b604082019050919050565b6000602082019050818103600083015261064181610605565b9050919050565b7f54686973206164647265737320646f6573206e6f74206861766520746869732060008201527f726f6c6520796574000000000000000000000000000000000000000000000000602082015250565b60006106a4602883610539565b91506106af82610648565b604082019050919050565b600060208201905081810360008301526106d381610697565b905091905056fea2646970667358221220326d8252bc1bf29be2f18095bf41cc51c0db065059ee12fccdc8d1d442a98fad64736f6c634300080e0033",
  "immutableReferences": {},
  "source": "// SPDX-License-Identifier: MIT\npragma solidity >=0.4.22 <0.9.0;\n\n// Import the library 'Roles'\nimport \"./Roles.sol\";\n\n/**\n * @title Consumer\n * @dev Contract for managing the consumer role\n */\ncontract Consumer {\n    using Roles for Roles.Role;\n\n    // Define 2 events, one for Adding, and other for Removing\n    event ConsumerAdded(address indexed account);\n    event ConsumerRemoved(address indexed account);\n\n    // Define a struct 'consumers' by inheriting from 'Roles' library, struct Role\n    Roles.Role private consumers;\n\n    // Define a modifier that checks to see if msg.sender has the appropriate role\n    modifier onlyConsumer() {\n        require(consumers.has(msg.sender), \"This account has no Consumer Role\");\n        _;\n    }\n\n    // In the constructor make the address that deploys this contract the 1st consumer\n    constructor() {\n        addConsumer(msg.sender);\n    }\n\n    // Define a function 'isConsumer' to check this role\n    function isConsumer(address account) public view returns (bool) {\n        return consumers.has(account);\n    }\n\n    // Define a function 'addConsumer' that adds this role\n    function addConsumer(address account) public {\n        consumers.add(account);\n        emit ConsumerAdded(account);\n    }\n\n    // Define a function 'renounceConsumer' to renounce this role\n    function renounceConsumer(address account) public {\n        consumers.remove(account);\n        emit ConsumerRemoved(account);\n    }\n}\n",
  "sourcePath": "C:\\Users\\jouha\\Downloads\\supply-chain-dapp\\contracts\\Roles\\Consumer.sol",
  "compiler": {
    "name": "solc",
    "version": "0.8.14+commit.80d49f37.Emscripten.clang"
  },
  "schemaVersion": "3.4.7",
  "updatedAt": "2022-06-05T21:45:21.674Z",
  "networkType": "ethereum",
  "devdoc": {
    "details": "Contract for managing the consumer role",
    "kind": "dev",
    "methods": {},
    "title": "Consumer",
    "version": 1
  },
  "userdoc": {
    "kind": "user",
    "methods": {},
    "version": 1
  }
}