{
  "contractName": "SupplyChain",
  "abi": [
    {
      "inputs": [],
      "stateMutability": "payable",
      "type": "constructor",
      "payable": true
    },
    {
      "anonymous": false,
      "inputs": [
        {
          "indexed": true,
          "internalType": "address",
          "name": "account",
          "type": "address"
        }
      ],
      "name": "ConsumerAdded",
      "type": "event"
    },
    {
      "anonymous": false,
      "inputs": [
        {
          "indexed": true,
          "internalType": "address",
          "name": "account",
          "type": "address"
        }
      ],
      "name": "ConsumerRemoved",
      "type": "event"
    },
    {
      "anonymous": false,
      "inputs": [
        {
          "indexed": true,
          "internalType": "address",
          "name": "account",
          "type": "address"
        }
      ],
      "name": "DistributorAdded",
      "type": "event"
    },
    {
      "anonymous": false,
      "inputs": [
        {
          "indexed": true,
          "internalType": "address",
          "name": "account",
          "type": "address"
        }
      ],
      "name": "DistributorRemoved",
      "type": "event"
    },
    {
      "anonymous": false,
      "inputs": [
        {
          "indexed": true,
          "internalType": "address",
          "name": "account",
          "type": "address"
        }
      ],
      "name": "FarmerAdded",
      "type": "event"
    },
    {
      "anonymous": false,
      "inputs": [
        {
          "indexed": true,
          "internalType": "address",
          "name": "account",
          "type": "address"
        }
      ],
      "name": "FarmerRemoved",
      "type": "event"
    },
    {
      "anonymous": false,
      "inputs": [
        {
          "indexed": false,
          "internalType": "uint256",
          "name": "upc",
          "type": "uint256"
        }
      ],
      "name": "ForSale",
      "type": "event"
    },
    {
      "anonymous": false,
      "inputs": [
        {
          "indexed": false,
          "internalType": "uint256",
          "name": "upc",
          "type": "uint256"
        }
      ],
      "name": "Harvested",
      "type": "event"
    },
    {
      "anonymous": false,
      "inputs": [
        {
          "indexed": false,
          "internalType": "uint256",
          "name": "upc",
          "type": "uint256"
        }
      ],
      "name": "Packed",
      "type": "event"
    },
    {
      "anonymous": false,
      "inputs": [
        {
          "indexed": false,
          "internalType": "uint256",
          "name": "upc",
          "type": "uint256"
        }
      ],
      "name": "Processed",
      "type": "event"
    },
    {
      "anonymous": false,
      "inputs": [
        {
          "indexed": false,
          "internalType": "uint256",
          "name": "upc",
          "type": "uint256"
        }
      ],
      "name": "Purchased",
      "type": "event"
    },
    {
      "anonymous": false,
      "inputs": [
        {
          "indexed": false,
          "internalType": "uint256",
          "name": "upc",
          "type": "uint256"
        }
      ],
      "name": "Received",
      "type": "event"
    },
    {
      "anonymous": false,
      "inputs": [
        {
          "indexed": true,
          "internalType": "address",
          "name": "account",
          "type": "address"
        }
      ],
      "name": "RetailerAdded",
      "type": "event"
    },
    {
      "anonymous": false,
      "inputs": [
        {
          "indexed": true,
          "internalType": "address",
          "name": "account",
          "type": "address"
        }
      ],
      "name": "RetailerRemoved",
      "type": "event"
    },
    {
      "anonymous": false,
      "inputs": [
        {
          "indexed": false,
          "internalType": "uint256",
          "name": "upc",
          "type": "uint256"
        }
      ],
      "name": "Shipped",
      "type": "event"
    },
    {
      "anonymous": false,
      "inputs": [
        {
          "indexed": false,
          "internalType": "uint256",
          "name": "upc",
          "type": "uint256"
        }
      ],
      "name": "Sold",
      "type": "event"
    },
    {
      "anonymous": false,
      "inputs": [
        {
          "indexed": true,
          "internalType": "address",
          "name": "oldOwner",
          "type": "address"
        },
        {
          "indexed": true,
          "internalType": "address",
          "name": "newOwner",
          "type": "address"
        }
      ],
      "name": "TransferOwnership",
      "type": "event"
    },
    {
      "inputs": [
        {
          "internalType": "address",
          "name": "account",
          "type": "address"
        }
      ],
      "name": "addConsumer",
      "outputs": [],
      "stateMutability": "nonpayable",
      "type": "function"
    },
    {
      "inputs": [
        {
          "internalType": "address",
          "name": "account",
          "type": "address"
        }
      ],
      "name": "addDistributor",
      "outputs": [],
      "stateMutability": "nonpayable",
      "type": "function"
    },
    {
      "inputs": [
        {
          "internalType": "address",
          "name": "account",
          "type": "address"
        }
      ],
      "name": "addFarmer",
      "outputs": [],
      "stateMutability": "nonpayable",
      "type": "function"
    },
    {
      "inputs": [
        {
          "internalType": "address",
          "name": "account",
          "type": "address"
        }
      ],
      "name": "addRetailer",
      "outputs": [],
      "stateMutability": "nonpayable",
      "type": "function"
    },
    {
      "inputs": [
        {
          "internalType": "address",
          "name": "account",
          "type": "address"
        }
      ],
      "name": "isConsumer",
      "outputs": [
        {
          "internalType": "bool",
          "name": "",
          "type": "bool"
        }
      ],
      "stateMutability": "view",
      "type": "function",
      "constant": true
    },
    {
      "inputs": [
        {
          "internalType": "address",
          "name": "account",
          "type": "address"
        }
      ],
      "name": "isDistributor",
      "outputs": [
        {
          "internalType": "bool",
          "name": "",
          "type": "bool"
        }
      ],
      "stateMutability": "view",
      "type": "function",
      "constant": true
    },
    {
      "inputs": [
        {
          "internalType": "address",
          "name": "account",
          "type": "address"
        }
      ],
      "name": "isFarmer",
      "outputs": [
        {
          "internalType": "bool",
          "name": "",
          "type": "bool"
        }
      ],
      "stateMutability": "view",
      "type": "function",
      "constant": true
    },
    {
      "inputs": [
        {
          "internalType": "address",
          "name": "account",
          "type": "address"
        }
      ],
      "name": "isRetailer",
      "outputs": [
        {
          "internalType": "bool",
          "name": "",
          "type": "bool"
        }
      ],
      "stateMutability": "view",
      "type": "function",
      "constant": true
    },
    {
      "inputs": [],
      "name": "kill",
      "outputs": [],
      "stateMutability": "nonpayable",
      "type": "function"
    },
    {
      "inputs": [],
      "name": "owner",
      "outputs": [
        {
          "internalType": "address",
          "name": "",
          "type": "address"
        }
      ],
      "stateMutability": "view",
      "type": "function",
      "constant": true
    },
    {
      "inputs": [
        {
          "internalType": "address",
          "name": "account",
          "type": "address"
        }
      ],
      "name": "renounceConsumer",
      "outputs": [],
      "stateMutability": "nonpayable",
      "type": "function"
    },
    {
      "inputs": [
        {
          "internalType": "address",
          "name": "account",
          "type": "address"
        }
      ],
      "name": "renounceDistributor",
      "outputs": [],
      "stateMutability": "nonpayable",
      "type": "function"
    },
    {
      "inputs": [
        {
          "internalType": "address",
          "name": "account",
          "type": "address"
        }
      ],
      "name": "renounceFarmer",
      "outputs": [],
      "stateMutability": "nonpayable",
      "type": "function"
    },
    {
      "inputs": [],
      "name": "renounceOwnership",
      "outputs": [],
      "stateMutability": "nonpayable",
      "type": "function"
    },
    {
      "inputs": [
        {
          "internalType": "address",
          "name": "account",
          "type": "address"
        }
      ],
      "name": "renounceRetailer",
      "outputs": [],
      "stateMutability": "nonpayable",
      "type": "function"
    },
    {
      "inputs": [
        {
          "internalType": "address payable",
          "name": "newOwner",
          "type": "address"
        }
      ],
      "name": "transferOwnership",
      "outputs": [],
      "stateMutability": "nonpayable",
      "type": "function"
    },
    {
      "inputs": [
        {
          "internalType": "uint256",
          "name": "_upc",
          "type": "uint256"
        },
        {
          "internalType": "string",
          "name": "state",
          "type": "string"
        }
      ],
      "name": "getItemHistory",
      "outputs": [
        {
          "internalType": "address",
          "name": "",
          "type": "address"
        }
      ],
      "stateMutability": "view",
      "type": "function",
      "constant": true
    },
    {
      "inputs": [
        {
          "internalType": "uint256",
          "name": "_upc",
          "type": "uint256"
        },
        {
          "internalType": "address payable",
          "name": "_originFarmerID",
          "type": "address"
        },
        {
          "internalType": "string",
          "name": "_originFarmName",
          "type": "string"
        },
        {
          "internalType": "string",
          "name": "_originFarmInformation",
          "type": "string"
        },
        {
          "internalType": "string",
          "name": "_originFarmLatitude",
          "type": "string"
        },
        {
          "internalType": "string",
          "name": "_originFarmLongitude",
          "type": "string"
        },
        {
          "internalType": "string",
          "name": "_productNotes",
          "type": "string"
        }
      ],
      "name": "harvestItem",
      "outputs": [],
      "stateMutability": "nonpayable",
      "type": "function"
    },
    {
      "inputs": [
        {
          "internalType": "uint256",
          "name": "_upc",
          "type": "uint256"
        }
      ],
      "name": "processItem",
      "outputs": [],
      "stateMutability": "nonpayable",
      "type": "function"
    },
    {
      "inputs": [
        {
          "internalType": "uint256",
          "name": "_upc",
          "type": "uint256"
        }
      ],
      "name": "packItem",
      "outputs": [],
      "stateMutability": "nonpayable",
      "type": "function"
    },
    {
      "inputs": [
        {
          "internalType": "uint256",
          "name": "_upc",
          "type": "uint256"
        },
        {
          "internalType": "uint256",
          "name": "_price",
          "type": "uint256"
        }
      ],
      "name": "sellItem",
      "outputs": [],
      "stateMutability": "nonpayable",
      "type": "function"
    },
    {
      "inputs": [
        {
          "internalType": "uint256",
          "name": "_upc",
          "type": "uint256"
        }
      ],
      "name": "buyItem",
      "outputs": [],
      "stateMutability": "payable",
      "type": "function",
      "payable": true
    },
    {
      "inputs": [
        {
          "internalType": "uint256",
          "name": "_upc",
          "type": "uint256"
        }
      ],
      "name": "shipItem",
      "outputs": [],
      "stateMutability": "nonpayable",
      "type": "function"
    },
    {
      "inputs": [
        {
          "internalType": "uint256",
          "name": "_upc",
          "type": "uint256"
        }
      ],
      "name": "receiveItem",
      "outputs": [],
      "stateMutability": "nonpayable",
      "type": "function"
    },
    {
      "inputs": [
        {
          "internalType": "uint256",
          "name": "_upc",
          "type": "uint256"
        }
      ],
      "name": "purchaseItem",
      "outputs": [],
      "stateMutability": "payable",
      "type": "function",
      "payable": true
    },
    {
      "inputs": [
        {
          "internalType": "uint256",
          "name": "_upc",
          "type": "uint256"
        }
      ],
      "name": "fetchItem",
      "outputs": [
        {
          "components": [
            {
              "internalType": "uint256",
              "name": "sku",
              "type": "uint256"
            },
            {
              "internalType": "uint256",
              "name": "upc",
              "type": "uint256"
            },
            {
              "internalType": "address payable",
              "name": "ownerID",
              "type": "address"
            },
            {
              "internalType": "address payable",
              "name": "originFarmerID",
              "type": "address"
            },
            {
              "internalType": "string",
              "name": "originFarmName",
              "type": "string"
            },
            {
              "internalType": "string",
              "name": "originFarmInformation",
              "type": "string"
            },
            {
              "internalType": "string",
              "name": "originFarmLatitude",
              "type": "string"
            },
            {
              "internalType": "string",
              "name": "originFarmLongitude",
              "type": "string"
            },
            {
              "internalType": "uint256",
              "name": "productID",
              "type": "uint256"
            },
            {
              "internalType": "string",
              "name": "productNotes",
              "type": "string"
            },
            {
              "internalType": "uint256",
              "name": "productPrice",
              "type": "uint256"
            },
            {
              "internalType": "enum StateProduct",
              "name": "itemState",
              "type": "uint8"
            },
            {
              "internalType": "address payable",
              "name": "distributorID",
              "type": "address"
            },
            {
              "internalType": "address payable",
              "name": "retailerID",
              "type": "address"
            },
            {
              "internalType": "address payable",
              "name": "consumerID",
              "type": "address"
            }
          ],
          "internalType": "struct Item",
          "name": "",
          "type": "tuple"
        }
      ],
      "stateMutability": "view",
      "type": "function",
      "constant": true
    }
  ],
  "bytecode": "0x6080604052336000806101000a81548173ffffffffffffffffffffffffffffffffffffffff021916908373ffffffffffffffffffffffffffffffffffffffff16021790555060008054906101000a900473ffffffffffffffffffffffffffffffffffffffff1673ffffffffffffffffffffffffffffffffffffffff16600073ffffffffffffffffffffffffffffffffffffffff167f5c486528ec3e3f0ea91181cff8116f02bfa350e03b8b6f12e00765adbb5af85c60405160405180910390a3620000d0336200011960201b60201c565b620000e1336200017a60201b60201c565b620000f233620001db60201b60201c565b62000103336200023c60201b60201c565b60016006819055506001600581905550620005a7565b620001348160016200029d60201b62002a1a1790919060201c565b8073ffffffffffffffffffffffffffffffffffffffff167f2e0ded4123377a3c2bc9a26f1717655a129e2f20752924d42e730ec89c83dbd060405160405180910390a250565b620001958160026200029d60201b62002a1a1790919060201c565b8073ffffffffffffffffffffffffffffffffffffffff167fddbf200aa634dc3fb81cfd68583dd1040d1c751d335e1d86b631bde3e977fea860405160405180910390a250565b620001f68160036200029d60201b62002a1a1790919060201c565b8073ffffffffffffffffffffffffffffffffffffffff167f71ae26cad02663e3d92efd6ec56031a80d74a20c0ab4183faa8bf262261c9baa60405160405180910390a250565b620002578160046200029d60201b62002a1a1790919060201c565b8073ffffffffffffffffffffffffffffffffffffffff167f28b26e7a3d20aedbc5f8f2ebf7da671c0491723a2b78f47a097b0e46dee0714260405160405180910390a250565b600073ffffffffffffffffffffffffffffffffffffffff168173ffffffffffffffffffffffffffffffffffffffff16036200030f576040517f08c379a00000000000000000000000000000000000000000000000000000000081526004016200030690620004ed565b60405180910390fd5b620003218282620003c260201b60201c565b1562000364576040517f08c379a00000000000000000000000000000000000000000000000000000000081526004016200035b9062000585565b60405180910390fd5b60018260000160008373ffffffffffffffffffffffffffffffffffffffff1673ffffffffffffffffffffffffffffffffffffffff16815260200190815260200160002060006101000a81548160ff0219169083151502179055505050565b60008073ffffffffffffffffffffffffffffffffffffffff168273ffffffffffffffffffffffffffffffffffffffff160362000435576040517f08c379a00000000000000000000000000000000000000000000000000000000081526004016200042c90620004ed565b60405180910390fd5b8260000160008373ffffffffffffffffffffffffffffffffffffffff1673ffffffffffffffffffffffffffffffffffffffff16815260200190815260200160002060009054906101000a900460ff16905092915050565b600082825260208201905092915050565b7f416464726573732063616e6e6f74206265207a65726f20616464726573730000600082015250565b6000620004d5601e836200048c565b9150620004e2826200049d565b602082019050919050565b600060208201905081810360008301526200050881620004c6565b9050919050565b7f54686973206164647265737320616c726561647920686173207468697320726f60008201527f6c65000000000000000000000000000000000000000000000000000000000000602082015250565b60006200056d6022836200048c565b91506200057a826200050f565b604082019050919050565b60006020820190508181036000830152620005a0816200055e565b9050919050565b6144d980620005b76000396000f3fe6080604052600436106101815760003560e01c80638ec4f505116100d1578063bdd8a6a81161008a578063f2fde38b11610064578063f2fde38b14610548578063f30fc48014610571578063f487d48d1461059a578063f61c899a146105c357610181565b8063bdd8a6a8146104e7578063d38ea5bf14610510578063e7fb74c71461052c57610181565b80638ec4f505146103b55780638f0c86fa146103de578063a26be9991461041b578063ad4b9cfb14610444578063b942906914610481578063bbb67db9146104be57610181565b80634d04321a1161013e5780637250e224116101185780637250e224146102fb57806380c3f96d14610324578063834ff7391461034d5780638da5cb5b1461038a57610181565b80634d04321a1461027e5780635da09b88146102a7578063715018a6146102e457610181565b80630ca7143214610186578063112940f9146101af5780632c98e64d146101d85780632d9235611461021557806341c0e1b51461023e57806349dae76614610255575b600080fd5b34801561019257600080fd5b506101ad60048036038101906101a89190612f19565b6105ec565b005b3480156101bb57600080fd5b506101d660048036038101906101d19190612f19565b610646565b005b3480156101e457600080fd5b506101ff60048036038101906101fa91906130c2565b6106a0565b60405161020c919061312d565b60405180910390f35b34801561022157600080fd5b5061023c60048036038101906102379190613148565b6106fa565b005b34801561024a57600080fd5b50610253610969565b005b34801561026157600080fd5b5061027c60048036038101906102779190613188565b6109f7565b005b34801561028a57600080fd5b506102a560048036038101906102a09190612f19565b610c5c565b005b3480156102b357600080fd5b506102ce60048036038101906102c99190612f19565b610cb6565b6040516102db91906131d0565b60405180910390f35b3480156102f057600080fd5b506102f9610cd3565b005b34801561030757600080fd5b50610322600480360381019061031d9190612f19565b610e1f565b005b34801561033057600080fd5b5061034b60048036038101906103469190612f19565b610e79565b005b34801561035957600080fd5b50610374600480360381019061036f9190612f19565b610ed3565b60405161038191906131d0565b60405180910390f35b34801561039657600080fd5b5061039f610ef0565b6040516103ac919061312d565b60405180910390f35b3480156103c157600080fd5b506103dc60048036038101906103d79190612f19565b610f19565b005b3480156103ea57600080fd5b5061040560048036038101906104009190612f19565b610f73565b60405161041291906131d0565b60405180910390f35b34801561042757600080fd5b50610442600480360381019061043d9190613188565b610f90565b005b34801561045057600080fd5b5061046b60048036038101906104669190613188565b6111e0565b6040516104789190613479565b60405180910390f35b34801561048d57600080fd5b506104a860048036038101906104a39190612f19565b6116f9565b6040516104b591906131d0565b60405180910390f35b3480156104ca57600080fd5b506104e560048036038101906104e09190612f19565b611716565b005b3480156104f357600080fd5b5061050e600480360381019061050991906134c7565b611770565b005b61052a60048036038101906105259190613188565b611bea565b005b61054660048036038101906105419190613188565b611f41565b005b34801561055457600080fd5b5061056f600480360381019061056a91906135f5565b612331565b005b34801561057d57600080fd5b5061059860048036038101906105939190613188565b6124eb565b005b3480156105a657600080fd5b506105c160048036038101906105bc9190612f19565b612750565b005b3480156105cf57600080fd5b506105ea60048036038101906105e59190613188565b6127aa565b005b610600816003612b3190919063ffffffff16565b8073ffffffffffffffffffffffffffffffffffffffff167fdb7176e79cffef81cb01767dd0447a0b24bb72ca9778d4b245581086b2a7e6db60405160405180910390a250565b61065a816004612a1a90919063ffffffff16565b8073ffffffffffffffffffffffffffffffffffffffff167f28b26e7a3d20aedbc5f8f2ebf7da671c0491723a2b78f47a097b0e46dee0714260405160405180910390a250565b600060086000848152602001908152602001600020826040516106c3919061365e565b908152602001604051809103902060009054906101000a900473ffffffffffffffffffffffffffffffffffffffff16905092915050565b610703336116f9565b610742576040517f08c379a0000000000000000000000000000000000000000000000000000000008152600401610739906136f8565b60405180910390fd5b8160026007811115610757576107566132a3565b5b60076000838152602001908152602001600020600b0160009054906101000a900460ff16600781111561078d5761078c6132a3565b5b146107cd576040517f08c379a00000000000000000000000000000000000000000000000000000000081526004016107c490613764565b60405180910390fd5b6007600084815260200190815260200160002060030160009054906101000a900473ffffffffffffffffffffffffffffffffffffffff168073ffffffffffffffffffffffffffffffffffffffff163373ffffffffffffffffffffffffffffffffffffffff1614610872576040517f08c379a0000000000000000000000000000000000000000000000000000000008152600401610869906137f6565b60405180910390fd5b6000600760008681526020019081526020016000209050600381600b0160006101000a81548160ff021916908360078111156108b1576108b06132a3565b5b02179055508381600a018190555032600860008781526020019081526020016000206040516108df90613862565b908152602001604051809103902060006101000a81548173ffffffffffffffffffffffffffffffffffffffff021916908373ffffffffffffffffffffffffffffffffffffffff1602179055507fa96ae0fc3224ebd79eebfe54bd130cc9cb94416cddd1f2386115e00b725324688560405161095a9190613886565b60405180910390a15050505050565b60008054906101000a900473ffffffffffffffffffffffffffffffffffffffff1673ffffffffffffffffffffffffffffffffffffffff163373ffffffffffffffffffffffffffffffffffffffff16036109f55760008054906101000a900473ffffffffffffffffffffffffffffffffffffffff1673ffffffffffffffffffffffffffffffffffffffff16ff5b565b610a00336116f9565b610a3f576040517f08c379a0000000000000000000000000000000000000000000000000000000008152600401610a36906136f8565b60405180910390fd5b8060006007811115610a5457610a536132a3565b5b60076000838152602001908152602001600020600b0160009054906101000a900460ff166007811115610a8a57610a896132a3565b5b14610aca576040517f08c379a0000000000000000000000000000000000000000000000000000000008152600401610ac190613913565b60405180910390fd5b6007600083815260200190815260200160002060030160009054906101000a900473ffffffffffffffffffffffffffffffffffffffff168073ffffffffffffffffffffffffffffffffffffffff163373ffffffffffffffffffffffffffffffffffffffff1614610b6f576040517f08c379a0000000000000000000000000000000000000000000000000000000008152600401610b66906137f6565b60405180910390fd5b6000600760008581526020019081526020016000209050600181600b0160006101000a81548160ff02191690836007811115610bae57610bad6132a3565b5b02179055503260086000868152602001908152602001600020604051610bd39061397f565b908152602001604051809103902060006101000a81548173ffffffffffffffffffffffffffffffffffffffff021916908373ffffffffffffffffffffffffffffffffffffffff1602179055507f5afe3b1bf87069693c075da5c22a98d63d1aef98a30dbbe538d0781a98b77ee584604051610c4e9190613886565b60405180910390a150505050565b610c70816001612b3190919063ffffffff16565b8073ffffffffffffffffffffffffffffffffffffffff167fa5e0f060af304ab17dd418c7927e3da3ae7868189bf387aee09ab179ccc572f260405160405180910390a250565b6000610ccc826003612c4790919063ffffffff16565b9050919050565b60008054906101000a900473ffffffffffffffffffffffffffffffffffffffff1673ffffffffffffffffffffffffffffffffffffffff163373ffffffffffffffffffffffffffffffffffffffff1614610d61576040517f08c379a0000000000000000000000000000000000000000000000000000000008152600401610d5890613a06565b60405180910390fd5b600073ffffffffffffffffffffffffffffffffffffffff1660008054906101000a900473ffffffffffffffffffffffffffffffffffffffff1673ffffffffffffffffffffffffffffffffffffffff167f5c486528ec3e3f0ea91181cff8116f02bfa350e03b8b6f12e00765adbb5af85c60405160405180910390a360008060006101000a81548173ffffffffffffffffffffffffffffffffffffffff021916908373ffffffffffffffffffffffffffffffffffffffff160217905550565b610e33816002612a1a90919063ffffffff16565b8073ffffffffffffffffffffffffffffffffffffffff167fddbf200aa634dc3fb81cfd68583dd1040d1c751d335e1d86b631bde3e977fea860405160405180910390a250565b610e8d816001612a1a90919063ffffffff16565b8073ffffffffffffffffffffffffffffffffffffffff167f2e0ded4123377a3c2bc9a26f1717655a129e2f20752924d42e730ec89c83dbd060405160405180910390a250565b6000610ee9826004612c4790919063ffffffff16565b9050919050565b60008060009054906101000a900473ffffffffffffffffffffffffffffffffffffffff16905090565b610f2d816003612a1a90919063ffffffff16565b8073ffffffffffffffffffffffffffffffffffffffff167f71ae26cad02663e3d92efd6ec56031a80d74a20c0ab4183faa8bf262261c9baa60405160405180910390a250565b6000610f89826002612c4790919063ffffffff16565b9050919050565b610fa4336003612c4790919063ffffffff16565b610fe3576040517f08c379a0000000000000000000000000000000000000000000000000000000008152600401610fda90613a98565b60405180910390fd5b8060056007811115610ff857610ff76132a3565b5b60076000838152602001908152602001600020600b0160009054906101000a900460ff16600781111561102e5761102d6132a3565b5b1461106e576040517f08c379a000000000000000000000000000000000000000000000000000000000815260040161106590613b2a565b60405180910390fd5b6000600760008481526020019081526020016000209050338160020160006101000a81548173ffffffffffffffffffffffffffffffffffffffff021916908373ffffffffffffffffffffffffffffffffffffffff160217905550600681600b0160006101000a81548160ff021916908360078111156110f0576110ef6132a3565b5b02179055503381600c0160006101000a81548173ffffffffffffffffffffffffffffffffffffffff021916908373ffffffffffffffffffffffffffffffffffffffff160217905550326008600085815260200190815260200160002060405161115890613b96565b908152602001604051809103902060006101000a81548173ffffffffffffffffffffffffffffffffffffffff021916908373ffffffffffffffffffffffffffffffffffffffff1602179055507fa8142743f8f70a4c26f3691cf4ed59718381fb2f18070ec52be1f1022d855557836040516111d39190613886565b60405180910390a1505050565b6111e8612d0e565b60076000838152602001908152602001600020604051806101e001604052908160008201548152602001600182015481526020016002820160009054906101000a900473ffffffffffffffffffffffffffffffffffffffff1673ffffffffffffffffffffffffffffffffffffffff1673ffffffffffffffffffffffffffffffffffffffff1681526020016003820160009054906101000a900473ffffffffffffffffffffffffffffffffffffffff1673ffffffffffffffffffffffffffffffffffffffff1673ffffffffffffffffffffffffffffffffffffffff1681526020016004820180546112d790613bda565b80601f016020809104026020016040519081016040528092919081815260200182805461130390613bda565b80156113505780601f1061132557610100808354040283529160200191611350565b820191906000526020600020905b81548152906001019060200180831161133357829003601f168201915b5050505050815260200160058201805461136990613bda565b80601f016020809104026020016040519081016040528092919081815260200182805461139590613bda565b80156113e25780601f106113b7576101008083540402835291602001916113e2565b820191906000526020600020905b8154815290600101906020018083116113c557829003601f168201915b505050505081526020016006820180546113fb90613bda565b80601f016020809104026020016040519081016040528092919081815260200182805461142790613bda565b80156114745780601f1061144957610100808354040283529160200191611474565b820191906000526020600020905b81548152906001019060200180831161145757829003601f168201915b5050505050815260200160078201805461148d90613bda565b80601f01602080910402602001604051908101604052809291908181526020018280546114b990613bda565b80156115065780601f106114db57610100808354040283529160200191611506565b820191906000526020600020905b8154815290600101906020018083116114e957829003601f168201915b505050505081526020016008820154815260200160098201805461152990613bda565b80601f016020809104026020016040519081016040528092919081815260200182805461155590613bda565b80156115a25780601f10611577576101008083540402835291602001916115a2565b820191906000526020600020905b81548152906001019060200180831161158557829003601f168201915b50505050508152602001600a8201548152602001600b820160009054906101000a900460ff1660078111156115da576115d96132a3565b5b60078111156115ec576115eb6132a3565b5b8152602001600b820160019054906101000a900473ffffffffffffffffffffffffffffffffffffffff1673ffffffffffffffffffffffffffffffffffffffff1673ffffffffffffffffffffffffffffffffffffffff168152602001600c820160009054906101000a900473ffffffffffffffffffffffffffffffffffffffff1673ffffffffffffffffffffffffffffffffffffffff1673ffffffffffffffffffffffffffffffffffffffff168152602001600d820160009054906101000a900473ffffffffffffffffffffffffffffffffffffffff1673ffffffffffffffffffffffffffffffffffffffff1673ffffffffffffffffffffffffffffffffffffffff16815250509050919050565b600061170f826001612c4790919063ffffffff16565b9050919050565b61172a816002612b3190919063ffffffff16565b8073ffffffffffffffffffffffffffffffffffffffff167f126174f6cf49c81cdb4a9214c6b8f037bef55b4ec31e4fc776cea2a1c8a88d5960405160405180910390a250565b611779336116f9565b6117b8576040517f08c379a00000000000000000000000000000000000000000000000000000000081526004016117af906136f8565b60405180910390fd5b6117c0612d0e565b8781602001818152505086816040019073ffffffffffffffffffffffffffffffffffffffff16908173ffffffffffffffffffffffffffffffffffffffff168152505086816060019073ffffffffffffffffffffffffffffffffffffffff16908173ffffffffffffffffffffffffffffffffffffffff1681525050858160800181905250848160a00181905250838160c00181905250828160e0018190525081816101200181905250600654816000018181525050600654886118829190613c3a565b8161010001818152505032600860008a81526020019081526020016000206040516118ac90613cdc565b908152602001604051809103902060006101000a81548173ffffffffffffffffffffffffffffffffffffffff021916908373ffffffffffffffffffffffffffffffffffffffff16021790555060016006546119079190613c3a565b60068190555060008161016001906007811115611927576119266132a3565b5b9081600781111561193b5761193a6132a3565b5b8152505080600760008a8152602001908152602001600020600082015181600001556020820151816001015560408201518160020160006101000a81548173ffffffffffffffffffffffffffffffffffffffff021916908373ffffffffffffffffffffffffffffffffffffffff16021790555060608201518160030160006101000a81548173ffffffffffffffffffffffffffffffffffffffff021916908373ffffffffffffffffffffffffffffffffffffffff1602179055506080820151816004019080519060200190611a11929190612e04565b5060a0820151816005019080519060200190611a2e929190612e04565b5060c0820151816006019080519060200190611a4b929190612e04565b5060e0820151816007019080519060200190611a68929190612e04565b506101008201518160080155610120820151816009019080519060200190611a91929190612e04565b5061014082015181600a015561016082015181600b0160006101000a81548160ff02191690836007811115611ac957611ac86132a3565b5b021790555061018082015181600b0160016101000a81548173ffffffffffffffffffffffffffffffffffffffff021916908373ffffffffffffffffffffffffffffffffffffffff1602179055506101a082015181600c0160006101000a81548173ffffffffffffffffffffffffffffffffffffffff021916908373ffffffffffffffffffffffffffffffffffffffff1602179055506101c082015181600d0160006101000a81548173ffffffffffffffffffffffffffffffffffffffff021916908373ffffffffffffffffffffffffffffffffffffffff1602179055509050507f8e55ccfc9778ff8eba1646d765cf1982537ce0f9257054a17b48aad74525018388604051611bd89190613886565b60405180910390a15050505050505050565b611bfe336004612c4790919063ffffffff16565b611c3d576040517f08c379a0000000000000000000000000000000000000000000000000000000008152600401611c3490613d63565b60405180910390fd5b8060066007811115611c5257611c516132a3565b5b60076000838152602001908152602001600020600b0160009054906101000a900460ff166007811115611c8857611c876132a3565b5b14611cc8576040517f08c379a0000000000000000000000000000000000000000000000000000000008152600401611cbf90613df5565b60405180910390fd5b60076000838152602001908152602001600020600a015480341015611d22576040517f08c379a0000000000000000000000000000000000000000000000000000000008152600401611d1990613e87565b60405180910390fd5b826000600760008681526020019081526020016000209050338160020160006101000a81548173ffffffffffffffffffffffffffffffffffffffff021916908373ffffffffffffffffffffffffffffffffffffffff160217905550600781600b0160006101000a81548160ff02191690836007811115611da557611da46132a3565b5b02179055503381600d0160006101000a81548173ffffffffffffffffffffffffffffffffffffffff021916908373ffffffffffffffffffffffffffffffffffffffff1602179055503260086000878152602001908152602001600020604051611e0d90613ef3565b908152602001604051809103902060006101000a81548173ffffffffffffffffffffffffffffffffffffffff021916908373ffffffffffffffffffffffffffffffffffffffff1602179055507f653d56639fee6b566a5c804764e9689de38645f0b733df89a36a1b7b42173dd885604051611e889190613886565b60405180910390a150600060076000838152602001908152602001600020600a0154905060008134611eba9190613f08565b905060076000848152602001908152602001600020600d0160009054906101000a900473ffffffffffffffffffffffffffffffffffffffff1673ffffffffffffffffffffffffffffffffffffffff166108fc829081150290604051600060405180830381858888f19350505050158015611f38573d6000803e3d6000fd5b50505050505050565b611f55336002612c4790919063ffffffff16565b611f94576040517f08c379a0000000000000000000000000000000000000000000000000000000008152600401611f8b90613fae565b60405180910390fd5b8060036007811115611fa957611fa86132a3565b5b60076000838152602001908152602001600020600b0160009054906101000a900460ff166007811115611fdf57611fde6132a3565b5b1461201f576040517f08c379a000000000000000000000000000000000000000000000000000000000815260040161201690614040565b60405180910390fd5b60076000838152602001908152602001600020600a015480341015612079576040517f08c379a000000000000000000000000000000000000000000000000000000000815260040161207090613e87565b60405180910390fd5b826000600760008681526020019081526020016000209050338160020160006101000a81548173ffffffffffffffffffffffffffffffffffffffff021916908373ffffffffffffffffffffffffffffffffffffffff160217905550600481600b0160006101000a81548160ff021916908360078111156120fc576120fb6132a3565b5b02179055503381600b0160016101000a81548173ffffffffffffffffffffffffffffffffffffffff021916908373ffffffffffffffffffffffffffffffffffffffff160217905550600060076000878152602001908152602001600020600a015490506007600087815260200190815260200160002060030160009054906101000a900473ffffffffffffffffffffffffffffffffffffffff1673ffffffffffffffffffffffffffffffffffffffff166108fc829081150290604051600060405180830381858888f193505050501580156121db573d6000803e3d6000fd5b5032600860008881526020019081526020016000206040516121fc906140ac565b908152602001604051809103902060006101000a81548173ffffffffffffffffffffffffffffffffffffffff021916908373ffffffffffffffffffffffffffffffffffffffff1602179055507f92f64ca637d023f354075a4be751b169c1a8a9ccb6d33cdd0cb3520543995727866040516122779190613886565b60405180910390a15050600060076000838152602001908152602001600020600a01549050600081346122aa9190613f08565b905060076000848152602001908152602001600020600b0160019054906101000a900473ffffffffffffffffffffffffffffffffffffffff1673ffffffffffffffffffffffffffffffffffffffff166108fc829081150290604051600060405180830381858888f19350505050158015612328573d6000803e3d6000fd5b50505050505050565b60008054906101000a900473ffffffffffffffffffffffffffffffffffffffff1673ffffffffffffffffffffffffffffffffffffffff163373ffffffffffffffffffffffffffffffffffffffff16146123bf576040517f08c379a00000000000000000000000000000000000000000000000000000000081526004016123b690613a06565b60405180910390fd5b600073ffffffffffffffffffffffffffffffffffffffff168173ffffffffffffffffffffffffffffffffffffffff160361242e576040517f08c379a000000000000000000000000000000000000000000000000000000000815260040161242590614133565b60405180910390fd5b8073ffffffffffffffffffffffffffffffffffffffff1660008054906101000a900473ffffffffffffffffffffffffffffffffffffffff1673ffffffffffffffffffffffffffffffffffffffff167f5c486528ec3e3f0ea91181cff8116f02bfa350e03b8b6f12e00765adbb5af85c60405160405180910390a3806000806101000a81548173ffffffffffffffffffffffffffffffffffffffff021916908373ffffffffffffffffffffffffffffffffffffffff16021790555050565b6124f4336116f9565b612533576040517f08c379a000000000000000000000000000000000000000000000000000000000815260040161252a906136f8565b60405180910390fd5b8060016007811115612548576125476132a3565b5b60076000838152602001908152602001600020600b0160009054906101000a900460ff16600781111561257e5761257d6132a3565b5b146125be576040517f08c379a00000000000000000000000000000000000000000000000000000000081526004016125b5906141c5565b60405180910390fd5b6007600083815260200190815260200160002060030160009054906101000a900473ffffffffffffffffffffffffffffffffffffffff168073ffffffffffffffffffffffffffffffffffffffff163373ffffffffffffffffffffffffffffffffffffffff1614612663576040517f08c379a000000000000000000000000000000000000000000000000000000000815260040161265a906137f6565b60405180910390fd5b6000600760008581526020019081526020016000209050600281600b0160006101000a81548160ff021916908360078111156126a2576126a16132a3565b5b021790555032600860008681526020019081526020016000206040516126c790614231565b908152602001604051809103902060006101000a81548173ffffffffffffffffffffffffffffffffffffffff021916908373ffffffffffffffffffffffffffffffffffffffff1602179055507f9b3b66e2380b690bae22c73ef1428fb0c91e72fe14a4b6defa13035214187aff846040516127429190613886565b60405180910390a150505050565b612764816004612b3190919063ffffffff16565b8073ffffffffffffffffffffffffffffffffffffffff167fe3f5ed5f263f1f01764a96edfc7d025f511ec5f7d180e8816908b78bcf74f09860405160405180910390a250565b6127be336002612c4790919063ffffffff16565b6127fd576040517f08c379a00000000000000000000000000000000000000000000000000000000081526004016127f490613fae565b60405180910390fd5b8060046007811115612812576128116132a3565b5b60076000838152602001908152602001600020600b0160009054906101000a900460ff166007811115612848576128476132a3565b5b14612888576040517f08c379a000000000000000000000000000000000000000000000000000000000815260040161287f90614292565b60405180910390fd5b60076000838152602001908152602001600020600b0160019054906101000a900473ffffffffffffffffffffffffffffffffffffffff168073ffffffffffffffffffffffffffffffffffffffff163373ffffffffffffffffffffffffffffffffffffffff161461292d576040517f08c379a0000000000000000000000000000000000000000000000000000000008152600401612924906137f6565b60405180910390fd5b6000600760008581526020019081526020016000209050600581600b0160006101000a81548160ff0219169083600781111561296c5761296b6132a3565b5b02179055503260086000868152602001908152602001600020604051612991906142fe565b908152602001604051809103902060006101000a81548173ffffffffffffffffffffffffffffffffffffffff021916908373ffffffffffffffffffffffffffffffffffffffff1602179055507ff00b9a5725b80c54016f42114f6ed7792d22eecb116011c4afac29c57bef6c9584604051612a0c9190613886565b60405180910390a150505050565b600073ffffffffffffffffffffffffffffffffffffffff168173ffffffffffffffffffffffffffffffffffffffff1603612a89576040517f08c379a0000000000000000000000000000000000000000000000000000000008152600401612a809061435f565b60405180910390fd5b612a938282612c47565b15612ad3576040517f08c379a0000000000000000000000000000000000000000000000000000000008152600401612aca906143f1565b60405180910390fd5b60018260000160008373ffffffffffffffffffffffffffffffffffffffff1673ffffffffffffffffffffffffffffffffffffffff16815260200190815260200160002060006101000a81548160ff0219169083151502179055505050565b600073ffffffffffffffffffffffffffffffffffffffff168173ffffffffffffffffffffffffffffffffffffffff1603612ba0576040517f08c379a0000000000000000000000000000000000000000000000000000000008152600401612b979061435f565b60405180910390fd5b612baa8282612c47565b612be9576040517f08c379a0000000000000000000000000000000000000000000000000000000008152600401612be090614483565b60405180910390fd5b60008260000160008373ffffffffffffffffffffffffffffffffffffffff1673ffffffffffffffffffffffffffffffffffffffff16815260200190815260200160002060006101000a81548160ff0219169083151502179055505050565b60008073ffffffffffffffffffffffffffffffffffffffff168273ffffffffffffffffffffffffffffffffffffffff1603612cb7576040517f08c379a0000000000000000000000000000000000000000000000000000000008152600401612cae9061435f565b60405180910390fd5b8260000160008373ffffffffffffffffffffffffffffffffffffffff1673ffffffffffffffffffffffffffffffffffffffff16815260200190815260200160002060009054906101000a900460ff16905092915050565b604051806101e001604052806000815260200160008152602001600073ffffffffffffffffffffffffffffffffffffffff168152602001600073ffffffffffffffffffffffffffffffffffffffff1681526020016060815260200160608152602001606081526020016060815260200160008152602001606081526020016000815260200160006007811115612da757612da66132a3565b5b8152602001600073ffffffffffffffffffffffffffffffffffffffff168152602001600073ffffffffffffffffffffffffffffffffffffffff168152602001600073ffffffffffffffffffffffffffffffffffffffff1681525090565b828054612e1090613bda565b90600052602060002090601f016020900481019282612e325760008555612e79565b82601f10612e4b57805160ff1916838001178555612e79565b82800160010185558215612e79579182015b82811115612e78578251825591602001919060010190612e5d565b5b509050612e869190612e8a565b5090565b5b80821115612ea3576000816000905550600101612e8b565b5090565b6000604051905090565b600080fd5b600080fd5b600073ffffffffffffffffffffffffffffffffffffffff82169050919050565b6000612ee682612ebb565b9050919050565b612ef681612edb565b8114612f0157600080fd5b50565b600081359050612f1381612eed565b92915050565b600060208284031215612f2f57612f2e612eb1565b5b6000612f3d84828501612f04565b91505092915050565b6000819050919050565b612f5981612f46565b8114612f6457600080fd5b50565b600081359050612f7681612f50565b92915050565b600080fd5b600080fd5b6000601f19601f8301169050919050565b7f4e487b7100000000000000000000000000000000000000000000000000000000600052604160045260246000fd5b612fcf82612f86565b810181811067ffffffffffffffff82111715612fee57612fed612f97565b5b80604052505050565b6000613001612ea7565b905061300d8282612fc6565b919050565b600067ffffffffffffffff82111561302d5761302c612f97565b5b61303682612f86565b9050602081019050919050565b82818337600083830152505050565b600061306561306084613012565b612ff7565b90508281526020810184848401111561308157613080612f81565b5b61308c848285613043565b509392505050565b600082601f8301126130a9576130a8612f7c565b5b81356130b9848260208601613052565b91505092915050565b600080604083850312156130d9576130d8612eb1565b5b60006130e785828601612f67565b925050602083013567ffffffffffffffff81111561310857613107612eb6565b5b61311485828601613094565b9150509250929050565b61312781612edb565b82525050565b6000602082019050613142600083018461311e565b92915050565b6000806040838503121561315f5761315e612eb1565b5b600061316d85828601612f67565b925050602061317e85828601612f67565b9150509250929050565b60006020828403121561319e5761319d612eb1565b5b60006131ac84828501612f67565b91505092915050565b60008115159050919050565b6131ca816131b5565b82525050565b60006020820190506131e560008301846131c1565b92915050565b6131f481612f46565b82525050565b600061320582612ebb565b9050919050565b613215816131fa565b82525050565b600081519050919050565b600082825260208201905092915050565b60005b8381101561325557808201518184015260208101905061323a565b83811115613264576000848401525b50505050565b60006132758261321b565b61327f8185613226565b935061328f818560208601613237565b61329881612f86565b840191505092915050565b7f4e487b7100000000000000000000000000000000000000000000000000000000600052602160045260246000fd5b600881106132e3576132e26132a3565b5b50565b60008190506132f4826132d2565b919050565b6000613304826132e6565b9050919050565b613314816132f9565b82525050565b60006101e08301600083015161333360008601826131eb565b50602083015161334660208601826131eb565b506040830151613359604086018261320c565b50606083015161336c606086018261320c565b5060808301518482036080860152613384828261326a565b91505060a083015184820360a086015261339e828261326a565b91505060c083015184820360c08601526133b8828261326a565b91505060e083015184820360e08601526133d2828261326a565b9150506101008301516133e96101008601826131eb565b50610120830151848203610120860152613403828261326a565b91505061014083015161341a6101408601826131eb565b5061016083015161342f61016086018261330b565b5061018083015161344461018086018261320c565b506101a08301516134596101a086018261320c565b506101c083015161346e6101c086018261320c565b508091505092915050565b60006020820190508181036000830152613493818461331a565b905092915050565b6134a4816131fa565b81146134af57600080fd5b50565b6000813590506134c18161349b565b92915050565b600080600080600080600060e0888a0312156134e6576134e5612eb1565b5b60006134f48a828b01612f67565b97505060206135058a828b016134b2565b965050604088013567ffffffffffffffff81111561352657613525612eb6565b5b6135328a828b01613094565b955050606088013567ffffffffffffffff81111561355357613552612eb6565b5b61355f8a828b01613094565b945050608088013567ffffffffffffffff8111156135805761357f612eb6565b5b61358c8a828b01613094565b93505060a088013567ffffffffffffffff8111156135ad576135ac612eb6565b5b6135b98a828b01613094565b92505060c088013567ffffffffffffffff8111156135da576135d9612eb6565b5b6135e68a828b01613094565b91505092959891949750929550565b60006020828403121561360b5761360a612eb1565b5b6000613619848285016134b2565b91505092915050565b600081905092915050565b60006136388261321b565b6136428185613622565b9350613652818560208601613237565b80840191505092915050565b600061366a828461362d565b915081905092915050565b600082825260208201905092915050565b7f54686973206163636f756e7420686173206e6f2061204661726d657220526f6c60008201527f6500000000000000000000000000000000000000000000000000000000000000602082015250565b60006136e2602183613675565b91506136ed82613686565b604082019050919050565b60006020820190508181036000830152613711816136d5565b9050919050565b7f546865204974656d206973206e6f7420696e205061636b656420737461746521600082015250565b600061374e602083613675565b915061375982613718565b602082019050919050565b6000602082019050818103600083015261377d81613741565b9050919050565b7f54686973206163636f756e74206973206e6f7420746865206f776e6572206f6660008201527f2074686973206974656d00000000000000000000000000000000000000000000602082015250565b60006137e0602a83613675565b91506137eb82613784565b604082019050919050565b6000602082019050818103600083015261380f816137d3565b9050919050565b7f466f7253616c6500000000000000000000000000000000000000000000000000600082015250565b600061384c600783613622565b915061385782613816565b600782019050919050565b600061386d8261383f565b9150819050919050565b61388081612f46565b82525050565b600060208201905061389b6000830184613877565b92915050565b7f546865204974656d206973206e6f7420696e204861727665737465642073746160008201527f7465210000000000000000000000000000000000000000000000000000000000602082015250565b60006138fd602383613675565b9150613908826138a1565b604082019050919050565b6000602082019050818103600083015261392c816138f0565b9050919050565b7f50726f6365737365640000000000000000000000000000000000000000000000600082015250565b6000613969600983613622565b915061397482613933565b600982019050919050565b600061398a8261395c565b9150819050919050565b7f4f6e6c7920746865206f776e65722063616e20706572666f726d20746869732060008201527f6f7065726174696f6e0000000000000000000000000000000000000000000000602082015250565b60006139f0602983613675565b91506139fb82613994565b604082019050919050565b60006020820190508181036000830152613a1f816139e3565b9050919050565b7f54686973206163636f756e7420686173206e6f2052657461696c657220726f6c60008201527f6500000000000000000000000000000000000000000000000000000000000000602082015250565b6000613a82602183613675565b9150613a8d82613a26565b604082019050919050565b60006020820190508181036000830152613ab181613a75565b9050919050565b7f546865204974656d206973206e6f7420696e205368697070656420737461746560008201527f2100000000000000000000000000000000000000000000000000000000000000602082015250565b6000613b14602183613675565b9150613b1f82613ab8565b604082019050919050565b60006020820190508181036000830152613b4381613b07565b9050919050565b7f5265636569766564000000000000000000000000000000000000000000000000600082015250565b6000613b80600883613622565b9150613b8b82613b4a565b600882019050919050565b6000613ba182613b73565b9150819050919050565b7f4e487b7100000000000000000000000000000000000000000000000000000000600052602260045260246000fd5b60006002820490506001821680613bf257607f821691505b602082108103613c0557613c04613bab565b5b50919050565b7f4e487b7100000000000000000000000000000000000000000000000000000000600052601160045260246000fd5b6000613c4582612f46565b9150613c5083612f46565b9250827fffffffffffffffffffffffffffffffffffffffffffffffffffffffffffffffff03821115613c8557613c84613c0b565b5b828201905092915050565b7f4861727665737465640000000000000000000000000000000000000000000000600082015250565b6000613cc6600983613622565b9150613cd182613c90565b600982019050919050565b6000613ce782613cb9565b9150819050919050565b7f54686973206163636f756e7420686173206e6f20436f6e73756d657220526f6c60008201527f6500000000000000000000000000000000000000000000000000000000000000602082015250565b6000613d4d602183613675565b9150613d5882613cf1565b604082019050919050565b60006020820190508181036000830152613d7c81613d40565b9050919050565b7f546865204974656d206973206e6f7420696e205265636569766564207374617460008201527f6521000000000000000000000000000000000000000000000000000000000000602082015250565b6000613ddf602283613675565b9150613dea82613d83565b604082019050919050565b60006020820190508181036000830152613e0e81613dd2565b9050919050565b7f54686520616d6f756e742073656e74206973206e6f742073756666696369656e60008201527f7420666f72207468652070726963650000000000000000000000000000000000602082015250565b6000613e71602f83613675565b9150613e7c82613e15565b604082019050919050565b60006020820190508181036000830152613ea081613e64565b9050919050565b7f5075726368617365640000000000000000000000000000000000000000000000600082015250565b6000613edd600983613622565b9150613ee882613ea7565b600982019050919050565b6000613efe82613ed0565b9150819050919050565b6000613f1382612f46565b9150613f1e83612f46565b925082821015613f3157613f30613c0b565b5b828203905092915050565b7f54686973206163636f756e7420686173206e6f204469737472696275746f722060008201527f526f6c6500000000000000000000000000000000000000000000000000000000602082015250565b6000613f98602483613675565b9150613fa382613f3c565b604082019050919050565b60006020820190508181036000830152613fc781613f8b565b9050919050565b7f546865204974656d206973206e6f7420696e20466f7253616c6520737461746560008201527f2100000000000000000000000000000000000000000000000000000000000000602082015250565b600061402a602183613675565b915061403582613fce565b604082019050919050565b600060208201905081810360008301526140598161401d565b9050919050565b7f536f6c6400000000000000000000000000000000000000000000000000000000600082015250565b6000614096600483613622565b91506140a182614060565b600482019050919050565b60006140b782614089565b9150819050919050565b7f546865206e6577204f776e65722063616e6e6f7420626520616464726573732060008201527f3000000000000000000000000000000000000000000000000000000000000000602082015250565b600061411d602183613675565b9150614128826140c1565b604082019050919050565b6000602082019050818103600083015261414c81614110565b9050919050565b7f546865204974656d206973206e6f7420696e2050726f6365737365642073746160008201527f7465210000000000000000000000000000000000000000000000000000000000602082015250565b60006141af602383613675565b91506141ba82614153565b604082019050919050565b600060208201905081810360008301526141de816141a2565b9050919050565b7f5061636b65640000000000000000000000000000000000000000000000000000600082015250565b600061421b600683613622565b9150614226826141e5565b600682019050919050565b600061423c8261420e565b9150819050919050565b7f546865204974656d206973206e6f7420696e20536f6c64207374617465210000600082015250565b600061427c601e83613675565b915061428782614246565b602082019050919050565b600060208201905081810360008301526142ab8161426f565b9050919050565b7f5368697070656400000000000000000000000000000000000000000000000000600082015250565b60006142e8600783613622565b91506142f3826142b2565b600782019050919050565b6000614309826142db565b9150819050919050565b7f416464726573732063616e6e6f74206265207a65726f20616464726573730000600082015250565b6000614349601e83613675565b915061435482614313565b602082019050919050565b600060208201905081810360008301526143788161433c565b9050919050565b7f54686973206164647265737320616c726561647920686173207468697320726f60008201527f6c65000000000000000000000000000000000000000000000000000000000000602082015250565b60006143db602283613675565b91506143e68261437f565b604082019050919050565b6000602082019050818103600083015261440a816143ce565b9050919050565b7f54686973206164647265737320646f6573206e6f74206861766520746869732060008201527f726f6c6520796574000000000000000000000000000000000000000000000000602082015250565b600061446d602883613675565b915061447882614411565b604082019050919050565b6000602082019050818103600083015261449c81614460565b905091905056fea264697066735822122099f1d9e2762dcdbf89698cf95d78b56726496e776d820375ffdd0cde3cdb372464736f6c634300080e0033",
  "immutableReferences": {},
  "source": "// SPDX-License-Identifier: MIT\npragma solidity >=0.4.22 <0.9.0;\n\nimport \"./Ownable.sol\";\nimport \"./Roles/Farmer.sol\";\nimport \"./Roles/Distributor.sol\";\nimport \"./Roles/Retailer.sol\";\nimport \"./Roles/Consumer.sol\";\nimport \"./utilities/Enums.sol\";\nimport \"./utilities/Structs.sol\";\n\n/**\n * @title Supplychain\n * @dev Contract for managing the entire supplychain\n */\ncontract SupplyChain is Ownable, Farmer, Distributor, Retailer, Consumer {\n    // Define a variable called 'upc' for Universal Product Code (UPC)\n    uint256 upc;\n    // Define a variable called 'sku' for Stock Keeping Unit (SKU)\n    uint256 sku;\n    // Define a public mapping 'items' that maps the UPC to an Item.\n    mapping(uint256 => Item) items;\n    // Define a public mapping 'itemsHistory' that maps the UPC to an array of TxHash, that track its journey through the supply chain -- to be sent from DApp.\n    mapping(uint256 => mapping(string => address)) itemsHistory;\n    // Default Product State\n    StateProduct constant defaultState = StateProduct.Harvested;\n\n    // Define 8 events with the same 8 state values and accept 'upc' as input argument\n    event Harvested(uint256 upc);\n    event Processed(uint256 upc);\n    event Packed(uint256 upc);\n    event ForSale(uint256 upc);\n    event Sold(uint256 upc);\n    event Shipped(uint256 upc);\n    event Received(uint256 upc);\n    event Purchased(uint256 upc);\n\n    // Using Ownable to define the owner\n    constructor() payable {\n        sku = 1;\n        upc = 1;\n    }\n\n    /** GENERAL MODIFIERS */\n    // Define a modifier that verifies the Caller\n    modifier verifyCaller(address _address) {\n        require(\n            msg.sender == _address,\n            \"This account is not the owner of this item\"\n        );\n        _;\n    }\n    // Define a modifier that checks if the paid amount is sufficient to cover the price\n    modifier paidEnough(uint256 _price) {\n        require(\n            msg.value >= _price,\n            \"The amount sent is not sufficient for the price\"\n        );\n        _;\n    }\n    // Define a modifier that checks the price and refunds the remaining balance to the Distributor\n    modifier checkValueForDistributor(uint256 _upc) {\n        _;\n        uint256 _price = items[_upc].productPrice;\n        uint256 amountToReturn = msg.value - _price;\n        items[_upc].distributorID.transfer(amountToReturn);\n    }\n    // Define a modifier that checks the price and refunds the remaining balance to the Consumer\n    modifier checkValueForConsumer(uint256 _upc) {\n        _;\n        uint256 _price = items[_upc].productPrice;\n        uint256 amountToReturn = msg.value - _price;\n        items[_upc].consumerID.transfer(amountToReturn);\n    }\n\n    /** PRODUCT STATE MODIFIERS */\n    // Define a modifier that checks if an item.state of a upc is Harvested\n    modifier harvested(uint256 _upc) {\n        require(\n            items[_upc].itemState == StateProduct.Harvested,\n            \"The Item is not in Harvested state!\"\n        );\n        _;\n    }\n    // Define a modifier that checks if an item.state of a upc is Processed\n    modifier processed(uint256 _upc) {\n        require(\n            items[_upc].itemState == StateProduct.Processed,\n            \"The Item is not in Processed state!\"\n        );\n        _;\n    }\n    // Define a modifier that checks if an item.state of a upc is Packed\n    modifier packed(uint256 _upc) {\n        require(\n            items[_upc].itemState == StateProduct.Packed,\n            \"The Item is not in Packed state!\"\n        );\n        _;\n    }\n    // Define a modifier that checks if an item.state of a upc is ForSale\n    modifier forSale(uint256 _upc) {\n        require(\n            items[_upc].itemState == StateProduct.ForSale,\n            \"The Item is not in ForSale state!\"\n        );\n        _;\n    }\n    // Define a modifier that checks if an item.state of a upc is Sold\n    modifier sold(uint256 _upc) {\n        require(\n            items[_upc].itemState == StateProduct.Sold,\n            \"The Item is not in Sold state!\"\n        );\n        _;\n    }\n    // Define a modifier that checks if an item.state of a upc is Shipped\n    modifier shipped(uint256 _upc) {\n        require(\n            items[_upc].itemState == StateProduct.Shipped,\n            \"The Item is not in Shipped state!\"\n        );\n        _;\n    }\n    // Define a modifier that checks if an item.state of a upc is Received\n    modifier received(uint256 _upc) {\n        require(\n            items[_upc].itemState == StateProduct.Received,\n            \"The Item is not in Received state!\"\n        );\n        _;\n    }\n    // Define a modifier that checks if an item.state of a upc is Purchased\n    modifier purchased(uint256 _upc) {\n        require(\n            items[_upc].itemState == StateProduct.Purchased,\n            \"The Item is not in Purchased state!\"\n        );\n        _;\n    }\n\n    /** FUNCTIONS (GETTERS) */\n    // Get The Item History\n    function getItemHistory(uint256 _upc, string memory state)\n        public\n        view\n        returns (address)\n    {\n        return itemsHistory[_upc][state];\n    }\n\n    /** FUNCTIONS (STATE) */\n    // Define a function 'harvestItem' that allows a farmer to mark an item 'Harvested'\n    function harvestItem(\n        uint256 _upc,\n        address payable _originFarmerID,\n        string memory _originFarmName,\n        string memory _originFarmInformation,\n        string memory _originFarmLatitude,\n        string memory _originFarmLongitude,\n        string memory _productNotes\n    ) public onlyFarmer {\n        // Add the new item as part of Harvest\n        Item memory newItem;\n        newItem.upc = _upc;\n        newItem.ownerID = _originFarmerID;\n        newItem.originFarmerID = _originFarmerID;\n        newItem.originFarmName = _originFarmName;\n        newItem.originFarmInformation = _originFarmInformation;\n        newItem.originFarmLatitude = _originFarmLatitude;\n        newItem.originFarmLongitude = _originFarmLongitude;\n        newItem.productNotes = _productNotes;\n        newItem.sku = sku;\n        newItem.productID = _upc + sku;\n        // Add Harvest to Item History\n        itemsHistory[_upc][\"Harvested\"] = tx.origin;\n        // Increment sku\n        sku = sku + 1;\n        // Setting state\n        newItem.itemState = StateProduct.Harvested;\n        // Adding new Item to map\n        items[_upc] = newItem;\n        // Emit the appropriate event\n        emit Harvested(_upc);\n    }\n\n    // Define a function 'processtItem' that allows a farmer to mark an item 'Processed'\n    function processItem(uint256 _upc)\n        public\n        //Only Farmer\n        onlyFarmer\n        // Call modifier to check if upc has passed previous supply chain stage\n        harvested(_upc)\n        // Call modifier to verify caller of this function\n        verifyCaller(items[_upc].originFarmerID)\n    {\n        // Update the appropriate fields\n        Item storage existingItem = items[_upc];\n        existingItem.itemState = StateProduct.Processed;\n        // Add Harvest to Item History\n        itemsHistory[_upc][\"Processed\"] = tx.origin;\n        // Emit the appropriate event\n        emit Processed(_upc);\n    }\n\n    // Define a function 'packItem' that allows a farmer to mark an item 'Packed'\n    function packItem(uint256 _upc)\n        public\n        //Only Farmer\n        onlyFarmer\n        // Call modifier to check if upc has passed previous supply chain stage\n        processed(_upc)\n        // Call modifier to verify caller of this function\n        verifyCaller(items[_upc].originFarmerID)\n    {\n        // Update the appropriate fields\n        Item storage existingItem = items[_upc];\n        existingItem.itemState = StateProduct.Packed;\n        // Add Harvest to Item History\n        itemsHistory[_upc][\"Packed\"] = tx.origin;\n        // Emit the appropriate event\n        emit Packed(_upc);\n    }\n\n    // Define a function 'sellItem' that allows a farmer to mark an item is 'ForSale'\n    function sellItem(uint256 _upc, uint256 _price)\n        public\n        //Only Farmer\n        onlyFarmer\n        // Call modifier to check if upc has passed previous supply chain stage\n        packed(_upc)\n        // Call modifier to verify caller of this function\n        verifyCaller(items[_upc].originFarmerID)\n    {\n        // Update the appropriate fields\n        Item storage existingItem = items[_upc];\n        existingItem.itemState = StateProduct.ForSale;\n        existingItem.productPrice = _price;\n        // Add Harvest to Item History\n        itemsHistory[_upc][\"ForSale\"] = tx.origin;\n        // Emit the appropriate event\n        emit ForSale(_upc);\n    }\n\n    // Define a function 'buyItem' that allows the disributor to mark an item 'Sold'\n    // Use the above defined modifiers to check if the item is available for sale, if the buyer has paid enough,\n    // and any excess ether sent is refunded back to the buyer\n    function buyItem(uint256 _upc)\n        public\n        payable\n        // Only Distributor\n        onlyDistributor\n        // Call modifier to check if upc has passed previous supply chain stage\n        forSale(_upc)\n        // Call modifer to check if buyer has paid enough\n        paidEnough(items[_upc].productPrice)\n        // Call modifer to send any excess ether back to buyer\n        checkValueForDistributor(_upc)\n    {\n        // Update the appropriate fields - ownerID, distributorID, itemState\n        Item storage existingItem = items[_upc];\n        existingItem.ownerID = payable(msg.sender);\n        existingItem.itemState = StateProduct.Sold;\n        existingItem.distributorID = payable(msg.sender);\n        // Transfer money to farmer\n        uint256 productPrice = items[_upc].productPrice;\n        items[_upc].originFarmerID.transfer(productPrice);\n        // Add Harvest to Item History\n        itemsHistory[_upc][\"Sold\"] = tx.origin;\n        // emit the appropriate event\n        emit Sold(_upc);\n    }\n\n    // Define a function 'shipItem' that allows the distributor to mark an item 'Shipped'\n    // Use the above modifers to check if the item is sold\n    function shipItem(uint256 _upc)\n        public\n        // Only Distributor\n        onlyDistributor\n        // Call modifier to check if upc has passed previous supply chain stage\n        sold(_upc)\n        // Call modifier to verify caller of this function\n        verifyCaller(items[_upc].distributorID)\n    {\n        // Update the appropriate fields\n        Item storage existingItem = items[_upc];\n        existingItem.itemState = StateProduct.Shipped;\n        // Add Harvest to Item History\n        itemsHistory[_upc][\"Shipped\"] = tx.origin;\n        // Emit the appropriate event\n        emit Shipped(_upc);\n    }\n\n    // Define a function 'receiveItem' that allows the retailer to mark an item 'Received'\n    // Use the above modifiers to check if the item is shipped\n    function receiveItem(uint256 _upc)\n        public\n        // Only Retailer\n        onlyRetailer\n        // Call modifier to check if upc has passed previous supply chain stage\n        shipped(_upc)\n    // Access Control List enforced by calling Smart Contract / DApp\n    {\n        // Update the appropriate fields - ownerID, retailerID, itemState\n        Item storage existingItem = items[_upc];\n        existingItem.ownerID = payable(msg.sender);\n        existingItem.itemState = StateProduct.Received;\n        existingItem.retailerID = payable(msg.sender);\n        // Add Harvest to Item History\n        itemsHistory[_upc][\"Received\"] = tx.origin;\n        // Emit the appropriate event\n        emit Received(_upc);\n    }\n\n    // Define a function 'purchaseItem' that allows the consumer to mark an item 'Purchased'\n    // Use the above modifiers to check if the item is received\n    function purchaseItem(uint256 _upc)\n        public\n        payable\n        //Only Consumer\n        onlyConsumer\n        // Call modifier to check if upc has passed previous supply chain stage\n        received(_upc)\n        // Make sure paid enough\n        paidEnough(items[_upc].productPrice)\n        // Access Control List enforced by calling Smart Contract / DApp\n        checkValueForConsumer(_upc)\n    {\n        // Update the appropriate fields - ownerID, consumerID, itemState\n        Item storage existingItem = items[_upc];\n        existingItem.ownerID = payable(msg.sender);\n        existingItem.itemState = StateProduct.Purchased;\n        existingItem.consumerID = payable(msg.sender);\n        // Add Harvest to Item History\n        itemsHistory[_upc][\"Purchased\"] = tx.origin;\n        // Emit the appropriate event\n        emit Purchased(_upc);\n    }\n\n    // Define a function that fetches the item's data\n    function fetchItem(uint256 _upc) public view returns (Item memory) {\n        return items[_upc];\n    }\n}\n",
  "sourcePath": "C:\\Users\\jouha\\Downloads\\supply-chain-dapp\\contracts\\SupplyChain.sol",
  "compiler": {
    "name": "solc",
    "version": "0.8.14+commit.80d49f37.Emscripten.clang"
  },
  "schemaVersion": "3.4.7",
  "updatedAt": "2022-06-05T21:45:21.686Z",
  "networkType": "ethereum",
  "devdoc": {
    "details": "Contract for managing the entire supplychain",
    "kind": "dev",
    "methods": {
      "kill()": {
        "details": "Define a function 'kill' if required"
      },
      "owner()": {
        "details": "Look up the address of the owner"
      },
      "renounceOwnership()": {
        "details": "Define a function to renounce ownerhip"
      },
      "transferOwnership(address)": {
        "details": "Define an public function to transfer ownership"
      }
    },
    "title": "Supplychain",
    "version": 1
  },
  "userdoc": {
    "kind": "user",
    "methods": {
      "getItemHistory(uint256,string)": {
        "notice": "FUNCTIONS (GETTERS) "
      },
      "harvestItem(uint256,address,string,string,string,string,string)": {
        "notice": "FUNCTIONS (STATE) "
      }
    },
    "version": 1
  }
}